{
	"data": {
		"bytecode": {
			"linkReferences": {},
			"object": "608060405234801561001057600080fd5b506101c6806100206000396000f300608060405260043610610041576000357c0100000000000000000000000000000000000000000000000000000000900463ffffffff1680636c33353c14610046575b600080fd5b34801561005257600080fd5b506100be600480360381019080803573ffffffffffffffffffffffffffffffffffffffff169060200190929190803573ffffffffffffffffffffffffffffffffffffffff16906020019092919080359060200190929190803560ff1690602001909291905050506100d8565b604051808215151515815260200191505060405180910390f35b60008373ffffffffffffffffffffffffffffffffffffffff168573ffffffffffffffffffffffffffffffffffffffff167facf013938d1d6f18b89e196538112c576b895a24dc13628c6f7c90311651a1438585604051808060200184815260200183600281111561014557fe5b60ff168152602001828103825260158152602001807f4920726563656976652048494e5420546f6b656e2e0000000000000000000000815250602001935050505060405180910390a3600190509493505050505600a165627a7a72305820e441b3b0ccb3c4bb6c28b9da3fef1678302859ed29cff3dae5231a5a89e83b2f0029",
			"opcodes": "PUSH1 0x80 PUSH1 0x40 MSTORE CALLVALUE DUP1 ISZERO PUSH2 0x10 JUMPI PUSH1 0x0 DUP1 REVERT JUMPDEST POP PUSH2 0x1C6 DUP1 PUSH2 0x20 PUSH1 0x0 CODECOPY PUSH1 0x0 RETURN STOP PUSH1 0x80 PUSH1 0x40 MSTORE PUSH1 0x4 CALLDATASIZE LT PUSH2 0x41 JUMPI PUSH1 0x0 CALLDATALOAD PUSH29 0x100000000000000000000000000000000000000000000000000000000 SWAP1 DIV PUSH4 0xFFFFFFFF AND DUP1 PUSH4 0x6C33353C EQ PUSH2 0x46 JUMPI JUMPDEST PUSH1 0x0 DUP1 REVERT JUMPDEST CALLVALUE DUP1 ISZERO PUSH2 0x52 JUMPI PUSH1 0x0 DUP1 REVERT JUMPDEST POP PUSH2 0xBE PUSH1 0x4 DUP1 CALLDATASIZE SUB DUP2 ADD SWAP1 DUP1 DUP1 CALLDATALOAD PUSH20 0xFFFFFFFFFFFFFFFFFFFFFFFFFFFFFFFFFFFFFFFF AND SWAP1 PUSH1 0x20 ADD SWAP1 SWAP3 SWAP2 SWAP1 DUP1 CALLDATALOAD PUSH20 0xFFFFFFFFFFFFFFFFFFFFFFFFFFFFFFFFFFFFFFFF AND SWAP1 PUSH1 0x20 ADD SWAP1 SWAP3 SWAP2 SWAP1 DUP1 CALLDATALOAD SWAP1 PUSH1 0x20 ADD SWAP1 SWAP3 SWAP2 SWAP1 DUP1 CALLDATALOAD PUSH1 0xFF AND SWAP1 PUSH1 0x20 ADD SWAP1 SWAP3 SWAP2 SWAP1 POP POP POP PUSH2 0xD8 JUMP JUMPDEST PUSH1 0x40 MLOAD DUP1 DUP3 ISZERO ISZERO ISZERO ISZERO DUP2 MSTORE PUSH1 0x20 ADD SWAP2 POP POP PUSH1 0x40 MLOAD DUP1 SWAP2 SUB SWAP1 RETURN JUMPDEST PUSH1 0x0 DUP4 PUSH20 0xFFFFFFFFFFFFFFFFFFFFFFFFFFFFFFFFFFFFFFFF AND DUP6 PUSH20 0xFFFFFFFFFFFFFFFFFFFFFFFFFFFFFFFFFFFFFFFF AND PUSH32 0xACF013938D1D6F18B89E196538112C576B895A24DC13628C6F7C90311651A143 DUP6 DUP6 PUSH1 0x40 MLOAD DUP1 DUP1 PUSH1 0x20 ADD DUP5 DUP2 MSTORE PUSH1 0x20 ADD DUP4 PUSH1 0x2 DUP2 GT ISZERO PUSH2 0x145 JUMPI INVALID JUMPDEST PUSH1 0xFF AND DUP2 MSTORE PUSH1 0x20 ADD DUP3 DUP2 SUB DUP3 MSTORE PUSH1 0x15 DUP2 MSTORE PUSH1 0x20 ADD DUP1 PUSH32 0x4920726563656976652048494E5420546F6B656E2E0000000000000000000000 DUP2 MSTORE POP PUSH1 0x20 ADD SWAP4 POP POP POP POP PUSH1 0x40 MLOAD DUP1 SWAP2 SUB SWAP1 LOG3 PUSH1 0x1 SWAP1 POP SWAP5 SWAP4 POP POP POP POP JUMP STOP LOG1 PUSH6 0x627A7A723058 KECCAK256 0xe4 COINBASE 0xb3 0xb0 0xcc 0xb3 0xc4 0xbb PUSH13 0x28B9DA3FEF1678302859ED29CF RETURN 0xda 0xe5 0x23 BYTE GAS DUP10 0xe8 EXTCODESIZE 0x2f STOP 0x29 "
		},
		"gasEstimates": {
			"creation": {
				"codeDepositCost": "90800",
				"executionCost": "141",
				"totalCost": "90941"
			},
			"external": {
				"onHINTReceived(address,address,uint256,uint8)": "3358"
			}
		},
		"methodIdentifiers": {
			"onHINTReceived(address,address,uint256,uint8)": "6c33353c"
		}
	},
	"abi": [
		{
			"constant": false,
			"inputs": [
				{
					"name": "owner",
					"type": "address"
				},
				{
					"name": "spender",
					"type": "address"
				},
				{
					"name": "value",
					"type": "uint256"
				},
				{
					"name": "receiveType",
					"type": "uint8"
				}
			],
			"name": "onHINTReceived",
			"outputs": [
				{
					"name": "",
					"type": "bool"
				}
			],
			"payable": false,
			"stateMutability": "nonpayable",
			"type": "function"
		},
		{
			"anonymous": false,
			"inputs": [
				{
					"indexed": false,
					"name": "message",
					"type": "string"
				},
				{
					"indexed": true,
					"name": "owner",
					"type": "address"
				},
				{
					"indexed": true,
					"name": "spender",
					"type": "address"
				},
				{
					"indexed": false,
					"name": "value",
					"type": "uint256"
				},
				{
					"indexed": false,
					"name": "receiveType",
					"type": "uint8"
				}
			],
			"name": "LogOnReceiveHINT",
			"type": "event"
		}
	]
}